:100000000C945C000C9490010C9469010C947900A0
:100010000C9479000C9479000C9479000C9479007C
:100020000C9479000C9479000C9479000C9479006C
:100030000C9479000C9479000C9479000C9479005C
:100040000C941F010C9479000C9479000C947900A5
:100050000C9479000C9479000C9479000C9479003C
:100060000C9479000C947900000000080002010053
:100070000003040700000000000000000000000072
:10008000250028002B0000000000240027002A0083
:10009000040404040404040402020202020203032E
:1000A0000303030301020408102040800102040836
:1000B000102001020408102011241FBECFEFD8E049
:1000C000DEBFCDBF11E0A0E0B1E0ECECF4E002C097
:1000D00005900D92A430B107D9F721E0A4E0B1E07A
:1000E00001C01D92AF30B207E1F70E94B7010C9436
:1000F00064020C94000090E0FC01EC55FF4F249149
:10010000FC01E057FF4F8491882399F090E0880F1D
:10011000991FFC01EA57FF4FA591B491FC01E458E7
:10012000FF4F859194918FB7F894EC91E22BEC936B
:100130008FBF089580910E01843021F0863021F424
:1001400088E003C086E001C084E080930E018091C6
:100150000D018F5F80930D01089590E0FC01E85937
:10016000FF4F3491FC01EC55FF4F2491FC01E05707
:10017000FF4FE491EE2309F43BC0332339F13330D0
:1001800091F038F43130A9F0323001F584B58F7D2B
:1001900012C0373091F03830A1F03430B9F480918A
:1001A00080008F7D03C0809180008F7780938000D6
:1001B0000DC084B58F7784BD09C08091B0008F7762
:1001C00003C08091B0008F7D8093B000F0E0EE0F0F
:1001D000FF1FE458FF4FA591B4918FB7F894EC91AD
:1001E000611103C020952E2301C02E2B2C938FBFAD
:1001F00008953FB7F8948091090190910A01A09168
:100200000B01B0910C0126B5A89B05C02F3F19F03A
:100210000196A11DB11D3FBFBA2FA92F982F882786
:10022000820F911DA11DB11DBC01CD0142E0660FE1
:10023000771F881F991F4A95D1F7089508951F9237
:100240000F920FB60F9211242F933F938F939F938A
:10025000AF93BF938091050190910601A091070192
:10026000B09108013091040123E0230F2D3720F4D1
:100270000196A11DB11D05C026E8230F0296A11D00
:10028000B11D209304018093050190930601A09372
:100290000701B09308018091090190910A01A09192
:1002A0000B01B0910C010196A11DB11D80930901B4
:1002B00090930A01A0930B01B0930C01BF91AF91F1
:1002C0009F918F913F912F910F900FBE0F901F9094
:1002D00018951F920F920FB60F9211242F933F93F0
:1002E0004F935F936F937F938F939F93AF93BF933E
:1002F000EF93FF93E0910201F09103010995FF91C3
:10030000EF91BF91AF919F918F917F916F915F918D
:100310004F913F912F910F900FBE0F901F90189506
:100320001F920F920FB60F9211242F933F934F936A
:100330005F936F937F938F939F93AF93BF93EF934D
:10034000FF93E0910001F09101010995FF91EF9178
:10035000BF91AF919F918F917F916F915F914F91DD
:100360003F912F910F900FBE0F901F90189578948A
:1003700084B5826084BD84B5816084BD85B58260AA
:1003800085BD85B5816085BD80916E00816080935B
:100390006E001092810080918100826080938100C4
:1003A00080918100816080938100809180008160D4
:1003B000809380008091B10084608093B10080912F
:1003C000B00081608093B00080917A008460809357
:1003D0007A0080917A00826080937A0080917A001E
:1003E000816080937A0080917A00806880937A009F
:1003F0001092C10084E080930E0110920D018AE9F1
:1004000090E09093010180930001809169008360E6
:1004100080936900E89A84E00E947B0086E00E9455
:100420007B0088E00E947B008DE00E947B00C0E0A2
:10043000D0E060E084E00E94AD0060E086E00E94D1
:10044000AD0060E088E00E94AD0060E08DE00E94B9
:10045000AD0080910E0161E00E94AD0080910D0120
:10046000823020F061E08DE00E94AD0010920D011D
:100470000E94F9004B015C0184E6C82ED12CE12CCE
:10048000F12C0E94F900DC01CB0188199909AA0915
:10049000BB09883E9340A105B10558F021E0C21A7E
:1004A000D108E108F10888EE880E83E0981EA11CAF
:1004B000B11CC114D104E104F10419F7209709F427
:0C04C000B8CF0E940000B5CFF894FFCF29
:0404CC001E011E01EE
:00000001FF
